:020000040000FA
:100000008501860107309F0003138316E0308600C8
:10001000FD3085005B2800000000000000000000AB
:1000200000000000000000000000000000000800C8
:1000300029203B203B203B203B203B203B200B202A
:100040000B20000000000000000000000000000085
:1000500008001030A1002F20A00B29280800103024
:10006000A2003520A10B2F2808001030A3003B2050
:10007000A20B35280800A30B3B28080006148610A5
:10008000061186110612861608000614861006113F
:1000900086110616861208000610861006158615AB
:1000A000061286120800061086140611861506121E
:1000B00086120800080085018601831686018501E5
:0800C000850183125A20622819
:0400C80000340034CC
:02400E00103F61
:00000001FF
