:020000040000FA
:100000008501860107309F00031383160728831696
:10001000043085000030860000308B0083120730EA
:100020009F00462011283130A0001C30A100EB3089
:10003000A200222022200000000000000000A00BEF
:100040001A2808002920A10B222840201C30A100DA
:100050000800A20B2928EB30A20008000330A500FD
:100060001320A50B302808000430A6001320A60B8F
:10007000362808000730A7001320A70B3C280800EB
:10008000051D0800432885195F285B288515061083
:100090000612061586153A20061186142E208610A3
:1000A0008611851106148616132013208612061653
:1000B0001320132008008515061186142E208611A2
:1000C000861006128511061486163420861206162E
:1000D0002E200612851506108615061534204C288C
:0400E00000340034B4
:02400E00103F61
:00000001FF
